:020000040800F2
:10000000A807002089010008CF150008ED1200089C
:10001000CD1500088F0200089F180008000000009E
:10002000000000000000000000000000D3150008E0
:100030009102000800000000D1150008D515000845
:10004000A3010008A3010008A3010008A301000800
:10005000A3010008A3010008A3010008A3010008F0
:10006000A3010008A3010008A3010008A3010008E0
:10007000A3010008A3010008A3010008A3010008D0
:10008000A3010008A3010008A3010008A3010008C0
:10009000A3010008A3010008A3010008A3010008B0
:1000A000A3010008A3010008A3010008A3010008A0
:1000B00039160008A3010008A3010008A3010008E5
:1000C000A3010008A3010008A3010008A301000880
:1000D000A3010008A3010008A3010008A301000870
:1000E000A3010008A3010008A301000800F002F822
:1000F00000F03AF80AA090E8000C82448344AAF188
:100100000107DA4501D100F02FF8AFF2090EBAE885
:100110000F0013F0010F18BFFB1A43F0010318473B
:10012000A4190000C4190000103A24BF78C878C18F
:10013000FAD8520724BF30C830C144BF04680C60ED
:10014000704700000023002400250026103A28BF35
:1001500078C1FBD8520728BF30C148BF0B60704739
:100160001FB51FBD10B510BD00F058F81146FFF7C0
:10017000F7FF01F0A5FB00F076F803B4FFF7F2FFFC
:1001800003BC00F07DF8000009488047094800479B
:10019000FEE7FEE7FEE7FEE7FEE7FEE7FEE7FEE737
:1001A000FEE7FEE704480549054A064B7047000094
:1001B00037160008ED000008A8010020A80700205D
:1001C000A8030020A80300204FF0000200B513464A
:1001D00094469646203922BFA0E80C50A0E80C5067
:1001E000B1F12001BFF4F7AF090728BFA0E80C5018
:1001F00048BF0CC05DF804EB890028BF40F8042B11
:1002000008BF704748BF20F8022B11F0804F18BF7D
:1002100000F8012B7047704770477047754600F033
:100220002BF8AE4605006946534620F00700854688
:1002300018B020B5FFF7B6FFBDE820404FF000062C
:100240004FF000074FF000084FF0000B21F00701BE
:10025000AC46ACE8C009ACE8C009ACE8C009ACE801
:10026000C0098D46704710B50446AFF300802046A4
:10027000BDE81040FFF781BF0048704744010020EF
:1002800001491820ABBEFEE7260002007047FEE7DA
:10029000704772B6FEE7000070B5044600F004F93E
:1002A0000546601C02D004480078044400F0FCF8C5
:1002B000401BA042FAD370BD140000202DE9F84F76
:1002C000DFF8B891002409F1040A0AF1040B23466F
:1002D0000F270BF1040EC9E00125A5402A40AA42D0
:1002E0007DD1674ED1F804C0ACEB0608B44532D0DE
:1002F00014DCBCF1030F3AD009DCBCF1000F2AD0AA
:10030000BCF1010F1CD0BCF1020F31D11DE0BCF1DA
:10031000110F17D0BCF1120F2AD119E0B8F5881FC0
:1003200019D006DCB8F5803F15D0B8F5801F1FD175
:1003300011E0B8F5001F0ED0B8F5041F18D10AE07F
:10034000CB6815E0CB681B1D12E0CB6808330FE0CB
:10035000CB680C330CE08B682BB1012B4FF00803FA
:1003600003D0456104E0042302E0056100E00023BE
:10037000FF2A01D8064601E000F104064FEA840591
:1003800001D9A5F12005D6F8008007FA05FC28EA76
:100390000C0803FA05F548EA0508C6F800804D6820
:1003A000ED0062D5374DAE6946F00106AE61AD692C
:1003B00024F0030605F001050095334D06EB050C0E
:1003C000DCF80850A607360F07FA06F825EA0805F4
:1003D000DFF8B880404503D14FF0000817E044E053
:1003E000DFF8AC80404502D14FF001080FE0DFF8A4
:1003F000A480404502D14FF0020808E0DFF8988061
:10040000404502D14FF0030801E04FF0040808FA1C
:1004100006F848EA0508CCF808804D68D9F800606D
:10042000ED034D4601D5164300E096432E604D681E
:10043000DAF80060AD03554601D5164300E0964357
:100440002E604D68DBF80060ED025D4601D5164375
:1004500000E096432E604D68DEF80060AD02754600
:1004600001D5164300E096432E60641C0D682A46B1
:10047000E5407FF431AFBDE8F88F00000004014093
:10048000000011100010024000000140000801406F
:10049000000C014000100140001401400AB101614C
:1004A00070470904FBE700000148806870470000BE
:1004B000140000200248816802781144816070476E
:1004C00014000020074810B5016841F010010160D8
:1004D000032000F075F80F2000F006F800F024F873
:1004E000002010BD0020024070B50D4D04464FF4B1
:1004F0007A712878B1FBF0F00A490968B1FBF0F095
:1005000000F0CCFA48B9102C07D200222146501E28
:1005100000F036F800206C6070BD012070BD000056
:1005200014000020200000200C4808B5816941F02B
:1005300001018161816901F001010091C16941F00E
:100540008051C161C06900F080500090044841684A
:1005500021F0E06141F08061416008BD001002407F
:1005600000000140002809DB00F01F02012191403A
:100570004009800000F1E020C0F800117047000041
:10058000F0B40E4B1B680C46C3F30223C3F10705FE
:10059000042D00D90425191D072901D2002300E0EC
:1005A000DB1E012606FA05F1491E214099409E40B6
:1005B000761E16403143F0BC01F072B90CED00E03C
:1005C000064900F0070208684FF6FF03184040EAAA
:1005D0000220034A10430860704700000CED00E061
:1005E0000000FA052DE9F0470F46050061D0434EA3
:1005F000306800F00700B84209D2306820F00700E8
:1006000038433060306800F00700B84251D12868A4
:100610003B4C810712D5400703D5606840F4E06089
:1006200060602878000703D5606840F4605060601F
:100630006068A96820F0F000084360602878C0076F
:1006400028D06868012810D02168022810D08907B6
:1006500000292EDA616821F0030101436160FFF790
:1006600023FF804641F288390DE021688903EFE7D6
:100670008901EDE7FFF718FFA0EB0801494502D912
:100680000320BDE8F0876068696800F00C00B0EBFB
:10069000810FEFD1306800F00700B8420BD9306805
:1006A00020F0070038433060306800F00700B8429F
:1006B00001D00120E5E72878400705D56068E968A2
:1006C00020F4E060084360602878000706D5606881
:1006D000296920F4605040EAC100606000F018F819
:1006E0006168084AC1F30311515CC84006490860BB
:1006F00006480068FFF7F8FE0020C2E7002002402D
:1007000000100240B41A0008200000201800002049
:1007100012A185B00FC98DE80F0014A0144A00681B
:1007200004905168134801F00C03042B10D0082BDF
:100730000ED1C1F38343C9031DF803000AD55168E4
:1007400004AAC1F34041515C0A4A5043B0FBF1F0A6
:1007500005B0704708494843FAE700000203040562
:10076000060708090A0B0C0D0E0F101001020000FD
:100770000010024000127A0000093D002DE9F84FF8
:10078000040070D02078C04DC00749D06868C0F31D
:100790008100012807D06868C0F38100022809D1D0
:1007A0006868C00306D52868800339D560680028CA
:1007B000E7D035E06068B0F5803F0BD010B1B0F500
:1007C000A02F11D0286820F480302860286820F4F9
:1007D000802002E0286840F480302860606890B192
:1007E000FFF762FE06460AE0286840F48020286091
:1007F000F0E700BFFFF758FE801B642873D8286815
:100800008003F7D50CE0FFF74FFE064605E000BF7A
:10081000FFF74AFE801B6428F0D828688003F7D4CD
:1008200020789A4E80074FF001094FF0000839D523
:10083000686810F00C0F07D06868C0F381000228C8
:1008400009D16868C00306D42868800714D52069D8
:10085000012808D110E02069B0B1C6F80090FFF778
:1008600023FE074605E00AE1FFF71EFEC01B022833
:10087000C4D828688007F7D52868616920F0F80097
:1008800040EAC10028600DE0C6F80080FFF70CFECA
:10089000074604E0FFF708FEC01B022823D828689B
:1008A0008007F7D4207800072CD57948A169D9B101
:1008B000C0F80090FFF7F8FD074604E0FFF7F4FDED
:1008C000C01B02280FD8686A8007F7D571484FF41B
:1008D000FA510068B0FBF1F0009000BF0098411E93
:1008E0000091FAD20EE080E0C0F80080FFF7DCFD56
:1008F000074604E0FFF7D8FDC01B022875D8686AD8
:100900008007F7D42078400760D5E8690027C00049
:1009100008D4E86940F08050E861E869012700F0F8
:10092000805000905C480168C90513D40168834673
:1009300041F480710160FFF7B7FD824606E000BF19
:10094000FFF7B2FDA0EB0A0064284ED8DBF80000E8
:10095000C005F5D5E06801280AD008B1052813D0F4
:10096000286A20F001002862286A20F0040002E0D2
:10097000286A40F001002862E06841F2883B98B1A3
:10098000FFF792FD82460BE0286A40F004002862DF
:10099000EEE700BFFFF788FDA0EB0A0159455AD8E2
:1009A000286A8007F6D50CE0FFF77EFD824605E059
:1009B000FFF77AFDA0EB0A0159454CD8286A800759
:1009C000F6D41FB1E86920F08050E861E06988B38F
:1009D0006968C1F38101022944D00228C6F8608009
:1009E00004D0FFF761FD044638E034E0FFF75CFD1A
:1009F000074604E0FFF758FDC01B02282BD82868E3
:100A00008001F7D4206AB0F5803F05D16868A168FD
:100A100020F4003008436860D4E90801084369689D
:100A200021F4741108436860C6F86090FFF73CFD3C
:100A3000044606E025E000BFFFF736FD001B022854
:100A400009D828688001F7D51BE000BFFFF72CFD0F
:100A5000001B022802D90320BDE8F88F2868800116
:100A6000F4D40EE00128F7D06868226A00F48031DF
:100A7000914204D1616A00F47010884201D00120D3
:100A8000EAE70020E8E700000010024000004242D0
:100A900080044242200000200070004010B5401E3B
:100AA000B0F1807F01D3012010BD4FF0E0246061E0
:100AB0000F21601700F0F4FE0020A06107202061E4
:100AC000002010BD7047704710B590F83C20012AF7
:100AD00022D0012280F83C20CA688C6822F440723F
:100AE00022434C6822F4806222430C6822F40062A4
:100AF00022430C6922F4805222434C6922F40052B2
:100B00002243C969002322F480420A4301684A64EF
:100B100080F83C30002010BD022010BD70B590F868
:100B20003C20012A26D0012480F83C40022280F893
:100B30003D2003685A689D6822F070060A683243B7
:100B40005A600D4B02689A4208D0B2F1804F05D02E
:100B50000A4B9A4202D00A4B9A4204D1496825F0C6
:100B600080031943916080F83D40002180F83C10DB
:100B7000084670BD022070BD002C014000040040FA
:100B80000008004070B5164C05464FF00001207873
:100B9000002828460FD000F093FBE0802868016A07
:100BA00021F00A0101622868016A41F00201016234
:100BB0000020207070BD00F083FB208129680A6A44
:100BC00022F00A020A6229680A6A0A620121217077
:100BD000617800EB0140E188401A608070BD000040
:100BE000000000202DE9F041054690F83C000C463D
:100BF000012836D0012085F83C008AB3042A42D06F
:100C00002868082A51D0D4E90023E168066A26F44E
:100C100080560662C669076A26F4407646EA0323D0
:100C20004FF6FF7606EA013123F4704319434FF47F
:100C3000005627F4005306EA02321A43C1610262E9
:100C40002868C16921F44061C1612868C169A2684E
:100C500041EA0221C161002085F83C00BDE8F08135
:100C600001E00220FAE7D4E90012E368286800F006
:100C7000CFFD2868816921F00C01816128688169B4
:100C8000A26811430FE0D4E90012E368286800F07D
:100C9000EBFD2868816921F44061816128688169E0
:100CA000A26841EA02218161D5E7D4E90027267BC9
:100CB000016A21F480710162C169036A21F00301B4
:100CC000394321F0F00731074FF4007647EA11610C
:100CD00023F4007306EA02221A43C1610262286803
:100CE000C16921F00C01C1612868C169A268114382
:100CF000B0E710B5040003D094F83D0010B107E050
:100D0000012010BD002084F83C00204600F01EF8B1
:100D1000022084F83D00211D206800F093FC012092
:100D200084F8460084F83E0084F83F0084F84000D0
:100D300084F8410084F8420084F8430084F84400B9
:100D400084F8450084F83D00002010BD00B585B052
:100D5000002100910191029103910068B0F1804F50
:100D60001ED11048C16941F00101C161C16901F0A2
:100D700001010491816941F0040181618069694642
:100D800000F004000490012000900748FFF796FA55
:100D9000002211461C20FFF7F3FB1C20FFF7E2FBAB
:100DA00005B000BD001002400008014010B5044627
:100DB00051B104290DD0082910D094F8410094F8BD
:100DC0004520012811D10EE094F83E0094F842200D
:100DD000F7E794F83F0094F84320F2E794F84000D6
:100DE00094F84420EDE7012A01D0012010BD022033
:100DF00051B1042911D0082918D084F8410084F891
:100E000045000C291BD136E084F83E0084F84200EE
:100E10002068C26842F0020210E084F83F0084F8C3
:100E200043002068C26842F0040207E084F84000F2
:100E300084F844002068C26842F00802C2600122BF
:100E4000206800F035FC0E492068884208D0B0F1D7
:100E5000804F05D00B49884202D00B49884204D10B
:100E6000816801F00701062903D0016841F0010102
:100E70000160002010BD2068C26842F01002DDE76A
:100E8000002C0140000400400008004070B50446FA
:100E9000006801694FF00005C943890715D4C1688E
:100EA000C943890711D4E91E016101202077206818
:100EB00080698007204602D0FFF764FE04E000F05E
:100EC000E7F8204600F0A4F9257720680169C943B6
:100ED000490717D4C168C943490713D46FF0040107
:100EE0000161022020772068806910F4407F20464D
:100EF00002D0FFF747FE04E000F0CAF8204600F0F9
:100F000087F9257720680169C943090716D4C168A4
:100F1000C943090712D46FF008010161042020774A
:100F20002068C0698007204602D0FFF72BFE04E04E
:100F300000F0AEF8204600F06BF9257720680169D3
:100F4000C943C90617D4C168C943C90613D46FF091
:100F500010010161082020772068C06910F4407FEB
:100F6000204602D0FFF70EFE04E000F091F8204684
:100F700000F04EF9257720680169C943C90708D1F7
:100F8000C168C943C90704D1891E0161204600F028
:100F90008FF920680169C943090609D4C168C943AA
:100FA000090605D46FF0800101612046FFF78AFD34
:100FB00020680169C943490609D4C168C943490683
:100FC00005D46FF040010161204600F08EF92068E1
:100FD0000169C94389060BD4C168C943890607D48E
:100FE0006FF0200101612046BDE87040FFF76BBD46
:100FF00070BD000010B586B00021009101910291F2
:10100000039103681C481D4A022183420ED1906956
:1010100040F0040090619069039100F00400049096
:10102000C801CDE90001694615480FE0154C164886
:10103000A3420FD1936943F0080393619269009131
:1010400002F008020191CDE9031212E0FFF736F930
:1010500006B010BD0D4CA342FAD1936943F00803CA
:1010600093619269039102F008020492C022CDE9D3
:1010700000216946EAE70000002C01400010024010
:101080000008014000040040000C0140000800403E
:10109000704770B5044690F83C000D4601280AD010
:1010A000012084F83C0042B1042A18D0082A2AD032
:1010B0000C2A4DD139E0022070BD206800F006FBFB
:1010C0002068816941F0080181612068816921F00F
:1010D00004018161206881692A69114311E0206857
:1010E00000F01CFB2068816941F400618161206887
:1010F000816921F480618161206881692A6941EAFE
:101100000221816124E0206800F034FB2068C1697D
:1011100041F00801C1612068C16921F00401C16189
:101120002068C1692A69114311E0206800F04EFB74
:101130002068C16941F40061C1612068C16921F47E
:101140008061C1612068C1692A6941EA0221C161E7
:10115000002084F83C0070BD10B5040003D094F862
:101160003D0010B107E0012010BD002084F83C00D4
:10117000204600F01FF8022084F83D00211D206861
:1011800000F060FA012084F8460084F83E0084F8FC
:101190003F0084F8400084F8410084F8420084F85D
:1011A000430084F8440084F8450084F83D000020A2
:1011B00010BD000008B5124A01681248914207D1DB
:1011C000816941F400618161806900F4006009E097
:1011D0000D4A914208D1C16941F00201C161C06963
:1011E00000F00200009008BD084A9142FBD1C1699D
:1011F00041F00401C161C06900F00400F2E70000A1
:10120000002C014000100240000400400008004093
:101210007047000010B50446022249B104290ED0DF
:10122000082913D094F84100012816D0012010BDE0
:1012300094F83E000128F9D184F83E200FE094F89C
:101240003F000128F2D184F83F2008E094F84000E4
:101250000128EBD184F8402001E084F841200122EC
:10126000206800F025FA0F492068884203D1426CBB
:1012700042F4004242642068884208D0B0F1804FB6
:1012800005D00949884202D00849884204D18168C2
:1012900001F00701062903D0016841F00101016056
:1012A000002010BD002C0140000400400008004058
:1012B00002484178491C417070470000000000203E
:1012C0000246002041B1042909D008290AD00C297E
:1012D00001D11068006C70471068406B704710684F
:1012E000806B70471068C06B70477047FEE7000066
:1012F0002DE9F04186B000262E4800960196029610
:101300000396816941F010018161816901F010014A
:101310000491816941F020018161816901F020011E
:101320000491816941F004018161816901F0040146
:101330000491816941F00801816180691E4F00F0CC
:1013400008000490002260213846FFF7A7F8012228
:1013500080213846FFF7A2F8DFF8608000223021B4
:101360004046FFF79BF802252020012403958DE8D5
:10137000510069463846FEF7A1FF40208DE8310054
:10138000694638460394FEF799FF8020CDE90004B2
:1013900069463846CDE90245FEF790FF30200395B7
:1013A0008DE8510069464046FEF788FF06B0BDE86B
:1013B000F08100000010024000080140000C0140D4
:1013C00010B592B000240F941C2108A81094FEF7C9
:1013D000FBFE20216846FEF7F7FE22482049016007
:1013E00040F2CF21C0E901144CF25031C0E903149E
:1013F0008021C0E90541FFF7AFFE08B1FEF749FFC4
:101400000F940FA917481094FFF788FB08B1FEF757
:1014100040FF602008900220CDE909040B940C9451
:101420000D94002208A90F480E94FFF732FE08B170
:10143000FEF72FFF00944FF40050CDE904400294D2
:1014400001940394694607480794FFF73DFB08B1F0
:10145000FEF71FFF0348FFF7CDFD12B010BD0000DF
:10146000002C01402400002010B586B0002418484C
:10147000059404940094019402944FF080410394E5
:1014800001604721C0E901144FF6FF71C0E9031460
:101490008461FFF72EFC08B1FEF7FBFE049404A95B
:1014A0000B480594FFF73AFB08B1FEF7F2FE012066
:1014B000CDE9004002940022694605480394FFF7F5
:1014C00091FB002801D0FEF7E4FE06B010BD00003D
:1014D0006C00002010B58AB0002407941C216846D7
:1014E0000894FEF771FE1648144901604721C0E9CF
:1014F000011444F61F61C0E903148461FFF72CFE58
:1015000008B1FEF7C6FE079407A90D480894FFF737
:1015100005FB08B1FEF7BDFE6020CDE90004029492
:101520000C22694606480494FFF7B3FD08B1FEF7A4
:10153000B0FE0348FFF75EFD0AB010BD0004004096
:10154000B400002010B58AB0002407941C2168461E
:101550000894FEF739FE1C481A4901604721C0E98A
:10156000011440F2E731C0E9031480218161FFF7E3
:10157000F3FD08B1FEF78DFE079407A91248089401
:10158000FFF7CCFA08B1FEF784FE602000904FF41C
:10159000FA70CDE90104002269460B480494FFF774
:1015A00078FD08B1FEF775FE042269460648FFF78C
:1015B00070FD08B1FEF76DFE0348FFF71BFD0AB092
:1015C00010BD000000080040FC000020FEE7FEE720
:1015D00070477047FEF76EBF30B58FB02821684660
:1015E000FEF7F2FD14210AA8FEF7EEFD0121080422
:1015F000CDE900100024029402250491CDE90750A2
:101600004FF4E01009906846FFF7B8F808B172B6D9
:10161000FEE70F20CDE90A054FF48060CDE90C40CC
:1016200002210AA80E94FEF7DDFF002801D072B651
:10163000FEE70FB030BD70470148FFF727BC000040
:101640006C000020F0B50268164B174C174D4FF098
:101650008047984205D0B84203D0A04201D0A842AA
:1016600003D122F070064A683243984205D0B8424E
:1016700003D0A04201D0A84203D122F44074CA682A
:1016800022434C6922F08002224302608A68C262CF
:101690000A688262984201D10969016301214161AE
:1016A000F0BD0000002C0140000400400008004094
:1016B00010B501F01F030121046A99408C430462B4
:1016C000016A9A401143016210BD000030B5026A00
:1016D00022F001020262026A4368846924F0730501
:1016E0000C682C4322F002058A682A430A4DA8425E
:1016F0000BD122F00805CA6823F440732A434D69D0
:1017000022F004021D438B692B43436084614968C6
:101710004163026230BD0000002C014030B5026A16
:1017200022F010020262026A436884690D6824F4A0
:10173000E64444EA05248D6822F0200242EA0512BC
:101740000B4DA8420ED1CD6822F0800242EA05126C
:101750004D6923F4406343EA85038D6922F040021A
:1017600043EA85034360846149688163026230BD56
:10177000002C014030B5026A22F480720262036AD2
:101780004268C46923F4007324F073050C682C4389
:101790008D6843EA05230C4DA8420ED1CD6823F491
:1017A000006343EA05234D6922F4405242EA0512E0
:1017B0008D6923F4806342EA05124260C46149687E
:1017C000C163036230BD0000002C014030B5026AE5
:1017D00022F480520262046A4268C3690D6823F4ED
:1017E000E64343EA05238D6824F4005444EA0534B3
:1017F000064DA84204D14D6922F4804242EA851286
:101800004260C36149680164046230BD002C01403C
:1018100070B5046A24F0010404628469056A0F4EFD
:10182000B04208D0B0F1804F05D00D4EB04202D08A
:101830000C4EB04203D124F00304144301E044F001
:1018400001041A0724F0F00444EA126225F00A03A6
:1018500001F00A0119438261016270BD002C014050
:10186000000400400008004030B5046A24F0100471
:1018700004628469056A24F4407444EA022222F472
:1018800070444FF6FF7202EA03322243A02425F08F
:10189000A00304EA011119438261016230BDFEE731
:1018A0000907090E002804DB00F1E02080F800148D
:1018B000704700F00F0000F1E02080F8141D704721
:1018C000FEF700FEFFF788FEFFF712FDFFF778FD39
:1018D000FFF7CAFDFFF7FEFDFFF734FE00216E485B
:1018E000FFF798FC00216D48FFF760FA0C216C4867
:1018F000FFF790FC00216B48FFF78CFC042169483E
:10190000FFF788FC674D684C2968E06848632868E1
:1019100021698163DFF894810122402146464046D7
:10192000FEF7BCFD4FF4FA773846FEF7B5FC00220F
:1019300040213046FEF7B2FD3846FEF7ADFC0122ED
:1019400040213046FEF7AAFD3846FEF7A5FC0022EE
:1019500040213046FEF7A2FD3846FEF79DFC0122ED
:1019600040213046FEF79AFD3846FEF795FC0022EE
:1019700040213046FEF792FD012280213046FEF7DD
:101980008DFD474EDFF828814FF47A7B40F2EE2A36
:101990004FF4AF696088A188884262D2C4F80CB065
:1019A000C4F810B02968C1F834B02968C1F838B05B
:1019B000012240213D48FEF771FD31684FF4166069
:1019C000086440F2DC50FEF767FC6188A088814221
:1019D0003CD231684FF4C87008644FF4FA60FEF7E7
:1019E0005BFC6088A188884218D23168C1F84090B9
:1019F000C4F80CA0002210214046C4F810A0FEF745
:101A00004DFD012220214046FEF748FD2968E0688F
:101A10004863296820698863584614E0C4F80CA01C
:101A2000002210214046C4F810A0FEF737FD012225
:101A300020214046FEF732FD2968E06848632968A6
:101A4000206988633846FEF727FCA3E7C4F80CA09A
:101A5000012210214046C4F810A0FEF71FFD00220D
:101A6000E6E7002240211148FEF718FD3168C1F871
:101A70004090E7600122102140462761FEF70EFDED
:101A8000012220214046FEF709FD2968E0684863ED
:101A90002968206988637DE7240000206C0000200D
:101AA000B4000020FC0000200000002000080140DD
:101AB000000C0140000000000000000001020304CF
:101AC00006070809E41A00080000002024000000AE
:101AD00028010008081B00082400002084070000DB
:101AE0004401000801000000F401000000000000B3
:101AF00000000000000000000100000010000000D5
:081B0000000000000024F400C5
:04000005080000ED02
:00000001FF
